:020000040800F2
:10000000A009002045010008AF1F00085D1B000883
:10001000AD1F0008AD0100083527000800000000F2
:100020000000000000000000000000005701000870
:10003000D9010008000000005B010008BD23000892
:100040005F0100085F0100085F0100085F01000810
:100050005F0100085F0100085F0100085F01000800
:100060005F0100085F0100085F0100085F010008F0
:100070005F0100085F0100085F0100085F010008E0
:100080005F0100085F0100085F0100085F010008D0
:100090005F0100085F0100085F0100085F010008C0
:1000A0005F0100085F0100085F0100085F010008B0
:1000B0005F0100085F0100085F0100085F010008A0
:1000C0005F0100085F0100085F0100085F01000890
:1000D0005F010008FD260008092700085F010008ED
:1000E0005F0100085F0100085F0100085F01000870
:1000F0005F0100085F0100085F0100085F01000860
:100100005F0100085F0100085F0100085F0100084F
:10011000712400085F0100085F0100085F0100080A
:100120005F0100085F0100085F0100085F0100082F
:10013000DFF80CD000F028F800480047A52B000895
:10014000A00900200648804706480047FEE7FEE772
:10015000FEE7FEE7FEE7FEE7FEE7FEE7FEE7FEE777
:100160002924000831010008202A04DB203A21FA62
:1001700002F00021704721FA02F3D040C2F12002C0
:100180009140084319467047064C074D06E0E06869
:1001900040F0010394E8070098471034AC42F6D3CE
:1001A000FFF7CAFF902E0008B02E0008FEE70000FF
:1001B00030B504460020651804E000BF14F8011BA8
:1001C00002F0A8FAAC42F9D3002102F0A3FABDE88C
:1001D0003040002102F09EBAFEE7000030B585B045
:1001E00000250446049500F05BFB0A480121001B32
:1001F000C00A03900095CDE9011404A9684600F0F7
:10020000F3F9044600F0EAFA14B1012005B030BD5C
:100210000020FBE70000080800B587B000F040FBB5
:10022000684600F05FFA00F0D9FA03480299884363
:1002300000D0022007B000BDF0FF0F0010B500F0A5
:100240002FFB03493420C860BDE8104000F0C6BA57
:10025000002002402DE9F04116468846054600245C
:1002600000F01EFB0E4F13E058F82420002329460F
:10027000022000F0D5FA10B10320BDE8F08158F853
:1002800024002968814201D00220F6E7641C2D1D5C
:10029000B44201D2BD42E7D900F0A0FA0020ECE759
:1002A000FCFF070810B58EB0044607A800F01AFA44
:1002B000ACB10020019001200090A5208DF8100025
:1002C0009DF82D008DF811000A48099C044300F0A8
:1002D000E7FA00F093FA00F0DBF910B107E0012033
:1002E000E8E76846029400F015FA002800D00420E0
:1002F0000EB010BDF0FF0F0006490020C86106488F
:10030000016941F004010161016941F040010161AD
:100310007047000080050020002002402DE9F047D2
:10032000DFF89C80D8F820104CF250390143CFB24E
:10033000C1F30726C1F307450C0E484600F01EF92D
:1003400000283BD11F49C86100F0A2F9002835D12F
:10035000D8F8102042F01002C8F81020FF2F07D064
:100360001948018839430180484600F007F9F8B977
:10037000FF2E08D01448801C018831430180484674
:1003800000F0FCF8A0B9FF2D08D00F48001D01882F
:1003900029430180484600F0F1F848B9FF2C07D006
:1003A0000948801D018821430180484600F0E6F895
:1003B000D8F8102022F01002C8F81020BDE8F0870D
:1003C000002002408005002008F8FF1F2DE9F047BB
:1003D000DFF89C80D8F820104CF250398143CFB21E
:1003E000C1F30726C1F307450C0E484600F0C6F8D6
:1003F00000283BD11F49C86100F04AF9002835D1D7
:10040000D8F8102042F01002C8F81020FF2F07D0B3
:100410001948018839400180484600F0AFF8F8B922
:10042000FF2E08D01448801C0188314001804846C6
:1004300000F0A4F8A0B9FF2D08D00F48001D0188D6
:1004400029400180484600F099F848B9FF2C07D0B0
:100450000948801D018821400180484600F08EF83F
:10046000D8F8102022F01002C8F81020BDE8F0875C
:10047000002002408005002008F8FF1F0449A52045
:10048000C96901F00201022900D100207047000073
:100490000020024070B506464CF25035284600F068
:1004A0006DF8002820D11149C861114C206940F035
:1004B00020002061206940F040002061284600F0C3
:1004C0005DF8216921F02001216100280CD120690B
:1004D00040F01000206107480680284600F04EF8E2
:1004E000216921F01001216170BD0000800500200C
:1004F0000020024000F8FF1F064A0021D161064992
:100500000A6942F002020A614861086940F040004D
:10051000086170478005002000200240044B002243
:10052000DA61044A136943F00103136101807047E3
:1005300080050020002002400E49C868C2060E480F
:1005400003D5C26942F00202C261CA68520703D5EC
:10055000C26942F00102C261CA69D20707D0C2690A
:1005600042F00402C261C86920F00100C861142091
:10057000C8607047002002408005002070B5054625
:1005800000F094FA0646114C09E0681C07D025B12A
:1005900000F08CFA801BA84201D9032070BDE068EE
:1005A000C007F2D1E068800601D52020E060E06855
:1005B000C00605D4E069C00702D1E068400703D552
:1005C000FFF7BAFF012070BD002070BD002002407F
:1005D00031B500F06BFA044600F068FA0099001B90
:1005E0008842F9D338BD00002DE9F047054626487A
:1005F0000F460126017E01290FD001218146017697
:100600002868DFF888804CF25034022808D0A246CF
:100610002046FFF7B3FFA8B131E00220BDE8F08724
:100620002046FFF7ABFF08BB0120FFF765FE204621
:10063000FFF7A4FFD8F81010064621F00401C8F80F
:1006400010101CE04FF0FF303860AC6811E020461D
:10065000FFF752FF5046FFF791FFD8F81010060041
:1006600021F00201C8F8101001D03C6007E004F549
:100670000064D5E9020100EBC120A042E7D80021C7
:1006800089F818103046C9E7800500200020024094
:1006900070B5FFF7F3FEC5B24CF250363046FFF7A7
:1006A0006DFF002818D10D49C8610D4C206940F03C
:1006B00020002061206940F0400020613046FFF7B3
:1006C0005DFF216921F020012161002804D1284625
:1006D000BDE87040FFF7DEBE70BD00008005002061
:1006E0000020024070B50446094D07202060286AAA
:1006F000A060FFF7C3FE2074E869042191FAA1F11C
:1007000000F01C00B1FA81F1C840607470BD0000B7
:10071000002002402DE9F0472D4D04460120297E9E
:1007200001290ED00121297621784FF00007C90751
:100730000DD060680128A06806D0FFF7EFFDE8BB88
:1007400005E00220BDE8F087FFF740FEF7E72178DB
:10075000890703D5207CFFF79DFE78BB21781D4ECD
:1007600049074CF2503916D594F811804846FFF7E6
:1007700005FF78B9EF61306940F01000306116492B
:1007800048F0880008804846FFF7F8FE316921F0FC
:100790001001316190B92178090716D5D4F8148079
:1007A000247E4846FFF7EAFE40B9EF61306940F029
:1007B00010003061A8F80040484600E005E0FFF76F
:1007C000DDFE316921F0100131612F76BAE70000BA
:1007D000800500200020024002F8FF1F0348016945
:1007E00041F08001016100207047000000200240BC
:1007F00010B500F0F9F9002010BD000005480169AE
:10080000890505D40449816004498160002070474E
:10081000012070470020024023016745AB89EFCDDE
:100820002DE9F05F07461C4888460024017E1546E6
:100830001E46012909D00121814601764CF2503A29
:100840005046FFF79BFE18B122E00220BDE8F09F62
:10085000012F02D0022F00D00427D346DFF83CA09E
:10086000220128463146FFF77FFC81B208EB4400A5
:10087000FFF754FE5846FFF781FEDAF8102022F009
:100880000102CAF8102018B9641CE4B2BC42E7D3D4
:10089000002289F81820D9E78005002000200240B6
:1008A00005480169090605D50449416004494160CC
:1008B0000020704701207047002002402301674557
:1008C000AB89EFCD2DE9F84FDFF8B8A100220AF18E
:1008D000040B144601274FF00F090BF1040E00BF63
:1008E0000B6807FA04F52B40AB4274D1DFF898C1CE
:1008F0004E68A6EB0C0866452BD00DDC032E34D0D9
:1009000005DC36B3012E19D0022E2FD11BE0112E9B
:1009100016D0122E2AD119E0B8F5881F19D006DC9E
:10092000B8F5803F15D0B8F5801F1FD111E0B8F59C
:10093000001F0ED0B8F5041F18D10AE0CA6815E0F0
:10094000CA68121D12E0CA6808320FE0CA680C3289
:100950000CE08A682AB1012A4FF0080203D04561F1
:1009600004E0042202E0056100E00022FF2B01D830
:10097000064601E000F104064FEA840501D9A5F11D
:100980002005D6F800C009FA05F82CEA080C02FA8E
:1009900005F54CEA050CC6F800C04D68ED006AD5B7
:1009A0003A4DAE6946F00106AE61AD6924F003062A
:1009B00005F001050095364D06EB050CDCF80850F6
:1009C000A6074FEA167809FA08F6B543314EB04249
:1009D00002D100261AE04EE02F4EB04201D101268E
:1009E00014E02E4EB04201D102260FE02C4EB04250
:1009F00001D103260AE02B4EB04201D1042605E0C6
:100A0000294EB04201D1052600E0062606FA08F676
:100A10002E43CCF808604D68DAF80060ED035546C7
:100A200001D51E4300E09E432E604D68AD0305D501
:100A3000DBF800601E43CBF8006004E0DBF80050F8
:100A40009D43CBF800504D68DEF80060ED0275461E
:100A500001D51E4300E09E432E604D68AD0205D5D2
:100A6000084D0C352E681E432E6004E0054E0C36F2
:100A700035689D433560641C102CFFF431AFBDE830
:100A8000F88F000000040140000011100010024027
:100A90000000014000080140000C0140001001402E
:100AA0000014014000180140001C0140014800688A
:100AB000704700001000002002480168491C0160D6
:100AC0007047000010000020074810B5016841F091
:100AD00010010160032000F075F8002000F006F816
:100AE00000F016F8002010BD0020024010B50446AA
:100AF00000F0D0F94FF47A71B0FBF1F000F07AFD1C
:100B000000222146501E00F03DF8002010BD0000DC
:100B1000154808B5816941F001018161806900F0E3
:100B200001000090032000F04DF8002211466FF004
:100B30000B0000F027F8002211466FF00A0000F0C9
:100B400021F8002211466FF0090000F01BF8002286
:100B50001146101F00F016F80022BDE808401146AB
:100B6000501E00F00FB800000010024000F01F02FD
:100B7000012191404009800000F1E020C0F80011FF
:100B800070470000F0B40E4B1B680C46C3F3022301
:100B9000C3F10705042D00D90425191D072901D229
:100BA000002300E0DB1E012606FA05F1491E214064
:100BB00099409E40761E16403143F0BC01F0F8B9D2
:100BC0000CED00E0064900F0070208684FF6FF034D
:100BD000184040EA0220034A1043086070470000B2
:100BE0000CED00E00000FA05BFF34F8F05480168E7
:100BF000054A01F4E06111430160BFF34F8F00BF6C
:100C0000FDE700000CED00E00400FA052DE9F047D7
:100C1000DFF8789205460E46D9F80000022300F06E
:100C20000707012041044206994C41F28838B74237
:100C300071D2D9F800C02CF0070C4CEA060CC9F8A8
:100C400000C0D9F8007007F00707B7426FD12E78BF
:100C5000B60705D56668AF6826F0F0063E436660C5
:100C60002E78F60756D06E68012E0BD0022E1ED0BD
:100C700093FAA3F1B1FA81F141F02001490924D09E
:100C8000216823E091FAA1F2B2FA82F242F0200246
:100C9000520901D0226800E0626A91FAA1F1B1FA2A
:100CA00081F101F01F018840024240D017E092FA22
:100CB000A2F1B1FA81F141F02001490901D0216886
:100CC00000E0616A92FAA2F202E0616A93FAA3F28A
:100CD000B2FA82F202F01F029040014227D060680F
:100CE00020F0030030436060FFF7E0FE06466868CE
:100CF000012809D00228474613D01EE0FFF7D6FE90
:100D0000801BB84201D992E047466068C0F3810079
:100D10000128F3D1A1E015E0FFF7C8FE801BB8421F
:100D200073D86068C0F381000228F5D195E092E0A5
:100D3000FFF7BCFE801BB84279D8606810F00C0F3A
:100D4000F6D18AE02F78BF0707D56768D5F808C0C5
:100D500027F0F00747EA0C0767602F78FF076DD090
:100D60006F68012F0BD0022F1ED093FAA3F1B1FAB6
:100D700081F141F02001490924D0216823E091FA52
:100D8000A1F2B2FA82F242F02002520901D02268A6
:100D900000E0626A91FAA1F1B1FA81F101F01F015C
:100DA0008840024257D017E092FAA2F1B1FA81F1DD
:100DB00041F02001490901D0216800E0616A92FAFE
:100DC000A2F202E0616A93FAA3F2B2FA82F202F0AE
:100DD0001F02904001423ED0606820F0030038437B
:100DE0006060FFF763FE07466868012807D00228A5
:100DF00011D01FE0FFF75AFEC11B414517D86068AC
:100E0000C0F381000128F5D118E010E0FFF74EFE95
:100E1000C11B41450BD86068C0F381000228F5D1A1
:100E20000CE000BFFFF742FEC11B414502D9032081
:100E3000BDE8F087606810F00C0FF3D1D9F800100E
:100E400021F007013143C9F80010D9F8000000F083
:100E50000700B04201D00120EAE72878400705D515
:100E60006068E96820F4E060084360602878000763
:100E700006D56068296920F4605040EAC1006060CE
:100E80000020FFF733FE0020D2E7000000200240E0
:100E90000010024000B500F043F808494968F0220C
:100EA00092FAA2F201F0F001B2FA82F2D140044AC1
:100EB000515CC8400349086000BD000000100240BA
:100EC000B02C00080C00002000B5FFF7E3FF074935
:100ED00049684FF4E06292FAA2F201F4E061B2FADA
:100EE00082F2D140024A515CC84000BD001002406D
:100EF000B02C000800B5FFF7CDFF074949684FF453
:100F0000605292FAA2F201F46051B2FA82F2D14038
:100F1000024A515CC84000BD00100240B02C0008DD
:100F200010B519A385B00FCB8DE80F001AA01B4B8D
:100F3000006804905A681A4802F00C0104291DD078
:100F400008291BD14FF4701494FAA4F402F4701120
:100F5000B4FA84F4E140D2031DF8011010D55A68A8
:100F60004FF4003393FAA3F302F40032B3FA83F39D
:100F7000DA4004AB9A5CB0FBF2F0484305B010BD18
:100F800008484843FAE70000020304050607080979
:100F90000A0B0C0D0E0F1010010200000010024091
:100FA00000127A0000093D002DE9F84F054600784F
:100FB000FA4EC0074FF0010425D070686704C0F3F3
:100FC0008100012807D07068C0F3810002281BD17E
:100FD0007068C00318D597FAA7F0B0FA80F040F017
:100FE0002000400901D0306800E0706A97FAA7F14C
:100FF000B1FA81F101F01F0104FA01F1084202D0B7
:101000006868002876D081E0306820F48030306055
:10101000306820F480203060FFF748FD804605E00E
:10102000FFF744FDA0EB080064287CD897FAA7F0EE
:10103000B0FA80F040F02000400901D0306800E0B4
:10104000706A97FAA7F1B1FA81F101F01F0104FA71
:1010500001F10842E4D16868B0F5803F0BD010B1CF
:10106000B0F5A02F11D0306820F4803030603068A7
:1010700020F4802002E0306840F4803030606868FE
:1010800020B3FFF713FD80460AE0306840F480206B
:101090003060F0E7FFF70AFDA0EB08006428C4D831
:1010A00097FAA7F0B0FA80F040F02000400901D094
:1010B000306800E0706A97FAA7F1B1FA81F101F0A7
:1010C0001F0104FA01F10842E4D01FE0FFF7EEFC33
:1010D000804605E0FFF7EAFCA0EB08006428A4D8EE
:1010E00097FAA7F0B0FA80F040F02000400902D053
:1010F000306801E0B7E0706A97FAA7F1B1FA81F1C0
:1011000001F01F0104FA01F10842E3D12878DFF869
:10111000908280074FF000094FF002075AD570689F
:1011200010F00C0F00E07AE14FF0F80B07D0706878
:10113000C0F3810002281BD17068C00318D497FA4D
:10114000A7F0B0FA80F040F02000400901D03068EC
:1011500000E0706A97FAA7F1B1FA81F101F01F017E
:1011600004FA01F108422AD0286901287BD126E03F
:10117000286980B394FAA4F0B0FA80F048F82040CF
:10118000FFF794FC824605E0FFF790FCA0EB0A0015
:10119000022884D897FAA7F0B0FA80F040F0200037
:1011A000400901D0306800E0706A97FAA7F1B1FAFF
:1011B00081F101F01F0104FA01F10842E4D0306826
:1011C0009BFAABF26969B2FA82F220F0F800914022
:1011D0000843306025E0FFE794FAA4F1B1FA81F109
:1011E00048F82190FFF762FC824605E0FFF75EFCBD
:1011F000A0EB0A000228CCD897FAA7F0B0FA80F04A
:1012000040F02000400901D0306800E0706A97FA91
:10121000A7F1B1FA81F101F01F0104FA01F10842CE
:10122000E4D1287800076ED5A869B8B394FAA4F081
:10123000B0FA80F008EB8000C0F88044FFF736FC7D
:10124000824605E0FFF732FCA0EB0A000228A0D896
:1012500097FAA7F0B0FA80F040F06000B4EB501FAE
:1012600002D130680CE096E197FAA7F0B0FA80F06E
:1012700040F06000B7EB501F01D1306A00E0706AA7
:1012800097FAA7F1B1FA81F101F01F0104FA01F216
:101290001042D7D00120FFF79BF934E0FFE794FA22
:1012A000A4F1B1FA81F108EB8101C1F88094FFF754
:1012B000FDFB824606E000BFFFF7F8FBA0EB0A004B
:1012C000022898D897FAA7F0B0FA80F040F06000B2
:1012D000B4EB501F01D130680BE097FAA7F0B0FAD9
:1012E00080F040F06000B7EB501F01D1306A00E0A1
:1012F000706A97FAA7F1B1FA81F101F01F0104FABF
:1013000001F21042D8D12878400770D5F06940F03A
:101310008050F061F069DFF88CB000F080500090F0
:10132000DBF8001041F48071CBF80010FFF7BEFB32
:10133000824605E0FFF7BAFBA0EB0A0064286ED8EE
:10134000DBF80000C005F5D5306A20F001003062FE
:10135000306A20F004003062FFF7A8FB834641F2B8
:10136000883A05E0FFF7A2FBA0EB0B01514556D8E8
:1013700097FAA7F0B0FA80F040F04000B4EB501FAD
:1013800001D1306811E097FAA7F0B0FA80F040F090
:101390004000B7EB501F07D1306A06E00010024052
:1013A0000000424200700040706A97FAA7F1B1FA5B
:1013B00081F101F01F0104FA01F10842D2D1E8687D
:1013C00001280AD008B1052812D0306A20F00100A7
:1013D0003062306A20F0040002E0306A40F0010020
:1013E0003062E86898B3FFF761FB83460CE05AE08F
:1013F000306A40F004003062EFE700BFFFF756FBB1
:10140000A0EB0B0151450AD897FAA7F0B0FA80F08B
:1014100040F04000B4EB501F02D130680CE09DE07A
:1014200097FAA7F0B0FA80F040F04000B7EB501FF9
:1014300001D1306A00E0706A97FAA7F1B1FA81F140
:1014400001F01F0204FA02F10842D7D02BE0FFE7B7
:10145000FFF72CFB834605E0FFF728FBA0EB0B0111
:1014600051457BD897FAA7F0B0FA80F040F04000E1
:10147000B4EB501F01D130680BE097FAA7F0B0FA37
:1014800080F040F04000B7EB501F01D1306A00E01F
:10149000706A97FAA7F1B1FA81F101F01F0204FA1C
:1014A00002F10842D8D1E86980B37168C1F38101C3
:1014B000022970D04FF080714F000228484609D0B1
:1014C00091FAA1F1B1FA81F148F82100FFF7EEFAA3
:1014D000054669E0894691FAA1F1B1FA81F1C24667
:1014E00048F82100FFF7E2FA804605E0FFF7DEFA50
:1014F000A0EB0800022854D897FAA7F0B0FA80F0C1
:1015000040F02000400902D0306801E061E0706ADC
:1015100097FAA7F1B1FA81F101F01F0104FA01F184
:101520000842E3D1286AB0F5803F05D17068A96808
:1015300020F4003008437060D5E908010843716861
:1015400021F474110843706099FAA9F0B0FA80F0A0
:101550004AF82040FFF7AAFA054606E021E000BF5E
:10156000FFF7A4FA401B02281BD897FAA7F0B0FA9D
:1015700080F040F02000400901D0306800E0706A3F
:1015800097FAA7F1B1FA81F101F01F0104FA01F114
:101590000842E5D01DE01EE0FFF788FA401B022854
:1015A00002D90320BDE8F88F97FAA7F0B0FA80F0CF
:1015B00040F02000400901D0306800E0706A97FADE
:1015C000A7F1B1FA81F101F01F0104FA01F108421B
:1015D000E2D10020E6E70120E4E74FF0E021042813
:1015E000086903D020F004000861704740F004004F
:1015F000FAE7704710B5401EB0F1807F01D301209B
:1016000010BD4FF0E02460610F21601700F0D0FCA6
:101610000020A06107202061002010BD10B5FFF759
:10162000E8FF10BD7047000038B504460068016847
:10163000C26811F0010F02F4807204D01AB1E16B9C
:1016400041F00101E1630168C1F34002416901F029
:10165000010122B119B1E26B42F00402E2630268B7
:10166000C2F3800222B119B1E26B42F00202E263DE
:101670000268C2F3C00222B119B1E16B41F0080166
:10168000E1630168C068C1F3401100F0200019B1A6
:1016900010B1204600F0F2FE20680168C068C1F376
:1016A000C01100F0800019B110B1204600F0AAFF6F
:1016B00021680868CA68C0F3801002F04002012562
:1016C00070B16AB1CA68204622F04002CA6094F83C
:1016D0003910322911D080F8395000BF00F03DFA9E
:1016E000E06B002808D0206801684068009084F80A
:1016F00039502046FFF796FF38BD222180F8391077
:10170000ECE770B5040004D094F83900002510B15E
:1017100006E0012070BD84F83850204600F020F823
:10172000022084F839002068C16821F40051C160AA
:10173000204600F0F7FE2068016921F49041016124
:101740002068416921F02A0141612068C16841F4A3
:101750000051C160E563012084F83900002070BDAC
:10176000F0B53949374D036800240E1502200322D5
:1017700085B0AB421ED1CB6943F40023CB61C9696C
:10178000324D01F40021CDE90321CDE90060694625
:101790002846FFF797F8E814CDE900046946284683
:1017A0000294FFF78FF8002211463420FFF7EAF980
:1017B000342020E0264F274DBB4220D18B6943F4D3
:1017C00080438B618969039201F48041049169151A
:1017D000CDE9001069462846FFF774F8CDE90064AA
:1017E000694628460294FFF76DF80022114625202D
:1017F000FFF7C8F92520FFF7B9F905B0F0BD164E7F
:10180000B342FAD1CB6943F40033CB61C969039287
:1018100001F4003104910421CDE900106946284605
:10182000FFF750F80820CDE90004694628460294E5
:10183000FFF748F8002211462620FFF7A3F92620DB
:10184000D9E70000004C00400010024000100140A9
:101850000038014000080140004400402DE9F047F5
:10186000044690F8390099460D46012801D0122807
:1018700058D12DB322B394F83800012852D0012654
:1018800084F838600027E76394F8390012281AD0EA
:101890005FF0220084F83900A285E2854FF4805879
:1018A000E08D4B46401EE085A0684FF000024045A9
:1018B0004FF02001204616D100F0D7FEB0B904E069
:1018C0000120BDE8F0873220E4E720690028206885
:1018D000406803D0C1B225F8011B12E0C0F3080133
:1018E00025F8021B0DE000F0C0FE08B10320E8E778
:1018F000206900282068406801D000F07F0005F8CA
:10190000010BE08D0028CBD194F83900322805D0A6
:1019100084F8396084F838700020D2E7122084F807
:101920003900F7E70220CCE790F83930012B01D0DD
:10193000122B2CD139B332B390F83830012B26D08A
:10194000012380F8383081628285C2850021C1631D
:1019500090F83920122A18D05FF0220280F839203E
:1019600080F838100168CA6842F48072CA60016861
:101970004A6942F001024A610068C16841F02001F1
:10198000C16000207047012070473222E6E7022044
:10199000704700002DE9F0412649264C07460068B3
:1019A00009688034A51C002688421BD1207828B9FC
:1019B0002118401CC0B28E706428F9D360780A28C0
:1019C00005D0217848552078401C207005E026700D
:1019D0006422A11C174800F095F80122611C1548EB
:1019E000FFF7A2FF134938684039096888421FD1C0
:1019F000207828B92118401CC0B28E706428F9D311
:101A000060780A2805D0217848552078401C20703D
:101A100006E0084826706422A11C403800F072F8E5
:101A2000611CBDE8F041034801224038FFF77CBF4C
:101A3000BDE8F081540000202DE9F047044690F8FD
:101A4000390099460D46012801D0222858D12DB3DE
:101A500022B394F83800012852D0012684F8386067
:101A60000027E76394F8390022281AD05FF01200AB
:101A700084F83900A284E2844FF48058E08C4B460D
:101A8000401EE084A0684FF0000240454FF0800106
:101A9000204613D100F0E9FD08BB04E00120BDE8B9
:101AA000F0873220E4E728882168C0F30800486006
:101AB000206908B16D1C08E0AD1C06E000F0D5FD02
:101AC00068B9216815F8010B4860E08C0028D5D171
:101AD0004B4600224021204600F0C7FD08B10320FC
:101AE000DDE794F83900322806D084F8396000BF69
:101AF00084F838700020D2E7222084F83900F7E714
:101B00000220CCE790F83930012B01D0222B22D1D2
:101B1000E9B1E2B190F83830012B1CD0012380F8F4
:101B2000383001628284C2840021C16390F8392078
:101B3000222A0ED05FF0120280F8392080F8381087
:101B40000068C16841F08001C16000207047012039
:101B500070473222F0E7022070477047FEE700002E
:101B6000F0B500220D4B154614460A27B1FBF3F6DB
:101B700030368654B1FBF3F603FB1611B3FBF7F3D3
:101B8000521C861816F8016C302E00D125B16D1C40
:101B9000641C0A2CEAD3F0BD0022F9E700CA9A3B84
:101BA00008B500208DF800003D4800F09DFB3D4841
:101BB00000F09AFB3C4800F097FB3C4800F094FB97
:101BC000394800F091FB3A4800F08EFB344800F0B1
:101BD0008BFB38A000F088FBFEF71EFB374C384E1D
:101BE000384D4FF0FF37206037A000F07DFB46A056
:101BF00000F07AFB54A000F077FB63A000F074FBC8
:101C0000206808B170A000E07FA000F06DFB8EA0FE
:101C100000F06AFB306840683B460122694628486C
:101C2000FFF71CFE9DF80000312807D0322808D0AD
:101C3000332809D0342818D093A01DE000F026FAEC
:101C4000D2E700F0D9FACFE79FA000F04DFB28685B
:101C5000A6490840B0F1005FC6D16868A060606026
:101C6000296881F308888047BEE7206848B10120D1
:101C7000FEF718FB18B19EA000F036FBB4E7A8A051
:101C800006E00020FEF70EFB08B1ADA0F4E7B7A018
:101C900000F02AFBBDA000F027FBFEF7A9FDA3E79B
:101CA000442E0008602D0008142D0008F82D0008AF
:101CB000AC2D00080D0A0D0A0000000000000020F5
:101CC00054000020008000080D0A3D3D3D3D3D3D93
:101CD0003D3D3D3D3D3D3D3D3D3D3D3D3D204D611D
:101CE000696E204D656E75203D3D3D3D3D3D3D3D60
:101CF0003D3D3D3D3D3D3D3D3D3D3D3D3D3D3D3D14
:101D00003D3D3D3D0D0A0A002020446F776E6C6F0B
:101D1000616420696D61676520746F207468652057
:101D2000696E7465726E616C20466C617368202DFB
:101D30002D2D2D2D2D2D2D2D2D2D2D2D2D2D2D2DD3
:101D400020310D0A0A000000202055706C6F61647C
:101D500020696D6167652066726F6D20746865200B
:101D6000696E7465726E616C20466C617368202DBB
:101D70002D2D2D2D2D2D2D2D2D2D2D2D2D2D2D2D93
:101D800020320D0A0A000000202045786563757432
:101D90006520746865206C6F616465642061707093
:101DA0006C69636174696F6E202D2D2D2D2D2D2D85
:101DB0002D2D2D2D2D2D2D2D2D2D2D2D2D2D2D2D53
:101DC00020330D0A0A000000202044697361626C10
:101DD00065207468652077726974652070726F740D
:101DE000656374696F6E202D2D2D2D2D2D2D2D2DBC
:101DF0002D2D2D2D2D2D2D2D2D2D2D2D2D2D2D2D13
:101E000020340D0A0A0000002020456E61626C65D6
:101E1000207468652077726974652070726F7465CC
:101E20006374696F6E202D2D2D2D2D2D2D2D2D2DB3
:101E30002D2D2D2D2D2D2D2D2D2D2D2D2D2D2D2DD2
:101E400020340D0A0A0000003D3D3D3D3D3D3D3D35
:101E50003D3D3D3D3D3D3D3D3D3D3D3D3D3D3D3DB2
:101E60003D3D3D3D3D3D3D3D3D3D3D3D3D3D3D3DA2
:101E70003D3D3D3D3D3D3D3D3D3D3D3D3D3D3D3D92
:101E80003D3D0D0A0A000000496E76616C696420D0
:101E90004E756D6265722021203D3D3E205468657F
:101EA000206E756D6265722073686F756C64206258
:101EB000652065697468657220312C20322C2033CE
:101EC000206F7220340D00005374617274207072A0
:101ED0006F6772616D20657865637574696F6E2ECA
:101EE0002E2E2E2E2E0D0A0A000000000000FE2FBE
:101EF0004572726F723A20466C617368207772691E
:101F0000746520756E2D70726F74656374696F6E81
:101F1000206661696C65642E2E2E0D0A000000009B
:101F200057726974652050726F74656374696F6E5F
:101F30002064697361626C65642E2E2E0D0A0000A8
:101F40004572726F723A20466C61736820777269CD
:101F500074652070726F74656374696F6E2066615A
:101F6000696C65642E2E2E0D0A000000577269748C
:101F7000652050726F74656374696F6E20656E6161
:101F8000626C65642E2E2E0D0A0000005379737466
:101F9000656D2077696C6C206E6F77207265737445
:101FA0006172742E2E2E0D0A00000000FEE77047AD
:101FB0000907090E002806DA00F00F0000F1E02002
:101FC00080F8141D704700F1E02080F8001470477D
:101FD0002DE9F84300240F460646904613460C6050
:101FE000012269462848FFF739FC050020D19DF8F9
:101FF0000000182820D006DC01280BD002280BD0C6
:10200000042804D104E0412827D0612825D00125E7
:1020100030700DE0802401E04FF480643070221DA8
:102020004346B11C1848FFF719FC050017D00024DF
:1020300028463C60BDE8F8834346012269461248C1
:10204000FFF70CFC18B99DF80000182803D00125F3
:102050009DF80000DCE70224DAE70225D8E7F178F2
:10206000B07881F0FF0188420AD1301901794079B6
:1020700000EB01282146301DFEF79AF84045D7D0E5
:1020800000240125D4E70000540000201FB50020E3
:10209000009001900290039015A000F025F903A88C
:1020A00000F04AFB38B105281AD004281CD00228B9
:1020B0001CD01EA015E0254800F016F9244800F0B9
:1020C00013F968460399FFF74BFD22A000F00CF9C5
:1020D000684600F009F922A000F006F923A000E00C
:1020E00028A000F001F91FBD36A0FAE73CA0F8E7F0
:1020F00057616974696E6720666F72207468652025
:1021000066696C6520746F2062652073656E74204B
:102110002E2E2E202870726573732027612720745D
:102120006F2061626F7274290A0D00000A0D46610A
:10213000696C656420746F207265636569766520DB
:102140007468652066696C65210A0D00C02C000862
:102150003A0100200A0D2053697A653A20000000F8
:102160002042797465730D0A000000002D2D2D2D7D
:102170002D2D2D2D2D2D2D2D2D2D2D2D2D2D2D0AB2
:10218000000000000A0A0D54686520696D616765EA
:102190002073697A652069732068696768657220B1
:1021A0007468616E2074686520616C6C6F7765641B
:1021B000207370616365206D656D6F7279210A0D02
:1021C000000000000A0A0D56657269666963617451
:1021D000696F6E206661696C6564210A0D000000FC
:1021E0000D0A0A41626F727465642062792075730A
:1021F00065722E0A0D00000008B500208DF8000061
:102200000EA000F071F84FF0FF330122694612482A
:10221000FFF724FB9DF8000043280DD14FF4004246
:102220000EA1144800F04AFB8DF8000008B112A07E
:1022300000E01CA000F058F808BD00000A0A0D5389
:10224000656C6563742052656365697665204669CF
:102250006C650A0D000000005400002055706C6F82
:1022600061646564466C617368496D6167652E627F
:10227000696E0000008000080A0D4572726F7220BE
:102280004F63637572726564207768696C6520546A
:1022900072616E736D697474696E672046696C65EE
:1022A0000A0D00000A0D46696C652075706C6F613F
:1022B000646564207375636365737366756C6C79AC
:1022C000200A0D0001B5074890F83910032902D102
:1022D000012180F839106423012269460148FFF783
:1022E000ABFB08BD54000020002201E0521C92B25A
:1022F000815C0029FAD1014664230148FFF79CBBA9
:1023000054000020F0B5054600242A7820462346D4
:10231000302A2ED16A78782A01D0582A29D102246D
:102320001CE000BFA2F14106052E07D9A2F161070A
:10233000052F03D91136092E04D913E0A2F1300775
:10234000092F01D8303A04E0052E01D8373A00E0D1
:10235000573A641C02EB03130B2C04D22A5D002AAB
:10236000E0D103E000202A5D002A01D101200B60AA
:10237000F0BD2A5D62B16B2A01D04B2A02D10CB1AB
:102380009B0205E06D2A01D04D2A04D11CB11B052A
:1023900001200B600AE0A2F13006092E0CD803EBF5
:1023A00083036FF02F0606EB43031344641C0B2CCE
:1023B000DED20128DDD1F0BD0020F0BD10B5FEF762
:1023C0007BFBBDE81040FFF729B930B58FB0012085
:1023D000009000040024CDE901040225CDE9075056
:1023E0004FF4E01009906846FEF7DEFD0F20CDE9BE
:1023F0000A056802CDE90C4002210AA80E94FEF7F6
:1024000005FCFEF747FD4FF47A71B0FBF1F0FFF7E2
:10241000F1F80420FFF7E1F800221146501EFEF704
:10242000B1FB0FB030BD00000D48016841F0010163
:10243000016041680B4A1140416001680A4A11403D
:102440000160016821F480210160416821F4FE01EE
:1024500041604FF41F0181600449C0030860704768
:10246000001002400000FFF8FFFFF6FE08ED00E05C
:102470000148FFF7D9B800001400002010B590F80B
:102480003910222903D0322901D0022010BD8168E1
:10249000B1F5805F11D00169002901681FD049683A
:1024A00001F07F03816A4A1C82620B70C18D491E54
:1024B0000904090CC18518D030E00269816A002A3C
:1024C0000268526805D0D2B20A80816A491C8162D2
:1024D000ECE7C2F308020A80816A891CF7E74A68C0
:1024E000816A4B1C83620A70E0E70168CA6822F0C7
:1024F0002002CA6090F83910322911D00168CA68E8
:1025000022F48072CA6001684A6922F001024A61BD
:102510005FF0010180F83910FFF73CFA002010BD90
:102520001221F7E72DE9F041044600680169E268ED
:1025300021F44051114301612169A0680843616998
:1025400008432168CA6841F20C639A430243CA6097
:1025500020684169A26921F4407111434161284911
:10256000206864254FF03208884218D1FEF7C2FC7B
:1025700000EBC00101EB001061688900B0FBF1F0D5
:10258000B0FBF5F6FEF7B6FC00EBC00101EB001066
:1025900061688900B0FBF1F7FEF7ACFC17E0FEF7CD
:1025A00093FC00EBC00101EB001061688900B0FBF7
:1025B000F1F0B0FBF5F6FEF787FC00EBC00101EB94
:1025C000001061688900B0FBF1F7FEF77DFC00EBBD
:1025D000C00101EB001061688900B0FBF1F0B0FBB5
:1025E000F5F06FF01801484307EB800108EB01108C
:1025F000B0FBF5F0216866F31F108860BDE8F0813C
:102600000038014090F83910122903D0322901D046
:10261000022070478168B1F5805F016A0BD04A1CC7
:102620000262026809785160C18C491E0904090CD4
:10263000C1840ED017E009880268C1F30801516017
:1026400001690029016A02D0491C0162ECE7891C7A
:10265000FBE70168CA6822F08002CA600068C168AE
:1026600041F04001C160002070472DE9F0471D4650
:1026700090460E460446FEF719FA07465FEA080040
:102680004FF000094FF0010808D030E0681C05D079
:1026900095B1FEF70BFAC01BA8420DD82068006860
:1026A00036EA0000F2D127E0681C20D025B1FEF701
:1026B000FDF9C01BA8421AD92068C16821F0800129
:1026C000C1602068C16821F02001C1602068C16834
:1026D00021F48071C1602068416921F001014161EC
:1026E00084F8398084F838900320BDE8F0872068AA
:1026F000006836EA0000D7D00020F6E70148FEF770
:1027000093BF0000540000200148FEF78DBF000079
:102710009400002041F4807141F221024000490000
:10272000CB0500D5401CC30300D55040CB03F5D5E5
:1027300080B27047FEE700002DE9F14F0027DFF877
:102740006CA188B03E46B9463C46D346A6E000BFE1
:102750004FF0000845469DE04FF47A7204A95448B2
:10276000FFF736FC60B1022868D0B9F1000F00D045
:10277000761C052E79D91820FFF7A4FD182087E0D4
:102780000498002660B1022805D049498B7843455A
:102790000BD015207CE00620FFF794FD022479E0A1
:1027A0000620FFF78FFD012574E0B8F1000F14D06B
:1027B00082085846091DFDF74DFDE8B31820FFF7C4
:1027C00081FD1820FFF77EFD5FF0040408F1010091
:1027D00000F0FF084FF001095CE0087968B30020C1
:1027E000344B091D02E01A54401C491C0A780AB1F6
:1027F0004028F8D34FF0000C03F800C060466B4649
:1028000001E01A54401C11F8012F202A01D0102891
:10281000F7D303F800C006A91846FFF773FD089820
:1028200048F201010068884214D918200C058DF87F
:1028300014002346012202E01EE017E022E005A971
:102840001D48FFF7F9F82346012205A91A48FFF7AA
:10285000F3F805245046FDF7C1FC0898069901607D
:102860000620FFF72FFD432009E010E00620FFF7C8
:1028700029FD01252F460DE0049906208B44FFF722
:1028800021FDA3E71820FFF71DFD182084E7432052
:10289000FFF718FD55EA04003FF45EAF57EA040065
:1028A0003FF456AF09B02046BDE8F08F0080000825
:1028B0007A0100203A010020540000202DE9F74F52
:1028C00086B04FF0000A0120AC4E0190012208981A
:1028D000727086F802A0FF23D04655465746F37023
:1028E000544604E006EB040C641C8CF804300B5DC9
:1028F0000BB1402CF6D3321900211171014602A808
:10290000FFF72EF902A8641D02E03155641C7F1CFC
:10291000C15D0029F9D14FF48019DFF860B202E0FF
:1029200000203055641C842CFAD31FE05C464E46D0
:102930004B468322611C9248FFF77EF88021201DC0
:10294000FDF736FC0446000AFFF7BCFCE0B2FFF7D7
:10295000B9FC3346012269468948FEF77FFF60B122
:102960000AF1010ABAF1050F00D3012558EA050062
:10297000DCD006980290089C7CE09DF800000628B8
:1029800015D01828EED13346012269467C48FEF75F
:1029900065FF0028E6D19DF800001828E2D102204A
:1029A000FDF716FE7648006840680225DAE74FF02A
:1029B0000108D7E7DDE90103704AC6B24FF480672A
:1029C0002046BC4201D3394600E08021884200D332
:1029D0000846B1F5806F07D0012757709670F6430F
:1029E000D6700426071D06E00227F6E713F801CB90
:1029F00002F806C0761CBE42F8D3884207D81A23D4
:102A0000001D091D01E01354401C8842FBD34FF008
:102A1000000A8DF800A0574629E000BF4FF48066F9
:102A2000B44200D28026F21C4B46D8460BF101017D
:102A30005348FFF701F8314608F10400FDF7B8FBF1
:102A40008046000AFFF73EFC08F0FF00FFF73AFC63
:102A50004B46012269464A48FEF700FF18B99DF827
:102A60000000062811D07F1C052F00D301255AEA4B
:102A70000500D3D00CB1002D9CD0002426468DF843
:102A800000402746DFF8F8801FE002984FF0010A67
:102A90003044B442029008D90198A41B202802D0E7
:102AA000401C0190E0E70525DEE70024DCE7042078
:102AB000FFF708FC4B46012269463148FEF7CEFE7F
:102AC00040B17F1C052F00D3012554EA0500EED04C
:102AD000E5B14EE09DF80000062815D01828F1D188
:102AE0004B46012269462648FEF7B8FE0028E9D188
:102AF0009DF800001828E5D10220FDF769FDD8F8FF
:102B0000000040680225DDE70124DBE701208BF8A7
:102B100001008BF80260FF208BF803005C46042064
:102B20002654401CC0B28428FAD34E464B4683221A
:102B3000611C1348FEF780FF8021201DFDF738FB44
:102B40000446000AFFF7BEFBE0B2FFF7BBFB3346CB
:102B5000012269460A48FEF781FE50B99DF800003F
:102B6000182806D10220FDF733FDD8F80000406890
:102B7000022509B02846BDE8F08F00007A01002048
:102B80005400002002E008C8121F08C1002AFAD130
:102B900070477047002001E001C1121F002AFBD1DD
:102BA0007047000086B0FDF78FFFFFF70EFC3A4834
:102BB000816941F004018161816901F0040104919E
:102BC000816941F0100181618069002400F01000EA
:102BD00004900120CDE90004694630480294FDF7D5
:102BE00071FE304D2E484FF4E1372860C5E901747D
:102BF0004FF00C08EC60C5E90448AC612846EC6174
:102C0000FEF77FFD05F1800027490160C0E90174EE
:102C1000C460C0E904488461C461FEF772FD05F137
:102C2000400622483060C6E90174F460C6E90448F1
:102C3000B4613046F461FEF764FD3068C16841F06C
:102C40002001C1603068C16841F04001C16028685E
:102C5000C16841F02001C1602868C16841F04001AD
:102C6000C16005F1C0040122611C3046FEF75CFE24
:102C70006422A11C3046FEF745FF0122611C284654
:102C8000FEF752FE6422A11C2846FEF73BFFFDF72B
:102C9000D5FAFEF785FFFEE700100240000801406C
:102CA000004C004014000020004400400038014067
:102CB00000000000010203040102030406070809E2
:102CC0000A0A0D2050726F6772616D6D696E672020
:102CD000436F6D706C6574656420537563636573D1
:102CE0007366756C6C79210A0D2D2D2D2D2D2D2DD2
:102CF0002D2D2D2D2D2D2D2D2D2D2D2D2D2D2D2D04
:102D00002D2D2D2D2D2D2D2D2D0D0A204E616D6576
:102D10003A2000000D0A3D202020202020202020E5
:102D200020202020202020202020202020202020A3
:102D30002020202020202020202020202020202093
:102D40002020202020202020202020202020202083
:102D500020202020202020202020203D00000000D6
:102D60000D0A3D202020202020202020202020206F
:102D70002028432920434F50595249474854203274
:102D80003031352053544D6963726F656C656374DF
:102D9000726F6E6963732020202020202020202065
:102DA000202020202020203D000000000D0A3D2092
:102DB0002020202020202020202020202020202013
:102DC0002020202020202020202020202020202003
:102DD00020204279204D4344204170706C6963612A
:102DE00074696F6E205465616D20202020202020A2
:102DF0002020203D000000000D0A3D202053544DAE
:102E000033324631787820496E2D4170706C696399
:102E10006174696F6E2050726F6772616D6D696E5B
:102E200067204170706C69636174696F6E2020283F
:102E300056657273696F6E20312E302E3029203D19
:102E4000000000000D0A3D3D3D3D3D3D3D3D3D3D09
:102E50003D3D3D3D3D3D3D3D3D3D3D3D3D3D3D3DA2
:102E60003D3D3D3D3D3D3D3D3D3D3D3D3D3D3D3D92
:102E70003D3D3D3D3D3D3D3D3D3D3D3D3D3D3D3D82
:102E80003D3D3D3D3D3D3D3D3D3D3D3D0000000066
:102E9000B02E00080000002014000000842B000861
:102EA000C42E0008140000208C090000942B000898
:102EB00000000000000000000000000000A24A0422
:042EC000000000000E
:0400000508000131BD
:00000001FF
